{
	"structure.sol": {
		"UserStorage": {
			"abi": [
				{
					"inputs": [
						{
							"internalType": "string",
							"name": "_name",
							"type": "string"
						},
						{
							"internalType": "uint256",
							"name": "_age",
							"type": "uint256"
						}
					],
					"name": "addUser",
					"outputs": [],
					"stateMutability": "nonpayable",
					"type": "function"
				},
				{
					"inputs": [
						{
							"internalType": "uint256",
							"name": "",
							"type": "uint256"
						}
					],
					"name": "users",
					"outputs": [
						{
							"internalType": "string",
							"name": "name",
							"type": "string"
						},
						{
							"internalType": "uint256",
							"name": "age",
							"type": "uint256"
						},
						{
							"internalType": "address",
							"name": "wallet",
							"type": "address"
						}
					],
					"stateMutability": "view",
					"type": "function"
				}
			],
			"devdoc": {
				"kind": "dev",
				"methods": {},
				"version": 1
			},
			"evm": {
				"assembly": "    /* \"structure.sol\":89:431  contract UserStorage {... */\n  mstore(0x40, 0x80)\n  callvalue\n  dup1\n  iszero\n  tag_1\n  jumpi\n  revert(0x00, 0x00)\ntag_1:\n  pop\n  dataSize(sub_0)\n  dup1\n  dataOffset(sub_0)\n  0x00\n  codecopy\n  0x00\n  return\nstop\n\nsub_0: assembly {\n        /* \"structure.sol\":89:431  contract UserStorage {... */\n      mstore(0x40, 0x80)\n      callvalue\n      dup1\n      iszero\n      tag_1\n      jumpi\n      revert(0x00, 0x00)\n    tag_1:\n      pop\n      jumpi(tag_2, lt(calldatasize, 0x04))\n      shr(0xe0, calldataload(0x00))\n      dup1\n      0x1c5220c2\n      eq\n      tag_3\n      jumpi\n      dup1\n      0x365b98b2\n      eq\n      tag_4\n      jumpi\n    tag_2:\n      revert(0x00, 0x00)\n        /* \"structure.sol\":241:428  function addUser(string memory _name, uint _age) public {... */\n    tag_3:\n      tag_5\n      0x04\n      dup1\n      calldatasize\n      sub\n      dup2\n      add\n      swap1\n      tag_6\n      swap2\n      swap1\n      tag_7\n      jump\t// in\n    tag_6:\n      tag_8\n      jump\t// in\n    tag_5:\n      stop\n        /* \"structure.sol\":213:232  User[] public users */\n    tag_4:\n      tag_9\n      0x04\n      dup1\n      calldatasize\n      sub\n      dup2\n      add\n      swap1\n      tag_10\n      swap2\n      swap1\n      tag_11\n      jump\t// in\n    tag_10:\n      tag_12\n      jump\t// in\n    tag_9:\n      mload(0x40)\n      tag_13\n      swap4\n      swap3\n      swap2\n      swap1\n      tag_14\n      jump\t// in\n    tag_13:\n      mload(0x40)\n      dup1\n      swap2\n      sub\n      swap1\n      return\n        /* \"structure.sol\":241:428  function addUser(string memory _name, uint _age) public {... */\n    tag_8:\n        /* \"structure.sol\":308:313  users */\n      0x00\n        /* \"structure.sol\":319:419  User({... */\n      mload(0x40)\n      dup1\n      0x60\n      add\n      0x40\n      mstore\n      dup1\n        /* \"structure.sol\":345:350  _name */\n      dup5\n        /* \"structure.sol\":319:419  User({... */\n      dup2\n      mstore\n      0x20\n      add\n        /* \"structure.sol\":370:374  _age */\n      dup4\n        /* \"structure.sol\":319:419  User({... */\n      dup2\n      mstore\n      0x20\n      add\n        /* \"structure.sol\":397:407  msg.sender */\n      caller\n        /* \"structure.sol\":319:419  User({... */\n      0xffffffffffffffffffffffffffffffffffffffff\n      and\n      dup2\n      mstore\n      pop\n        /* \"structure.sol\":308:420  users.push(User({... */\n      swap1\n      dup1\n      0x01\n      dup2\n      sload\n      add\n      dup1\n      dup3\n      sstore\n      dup1\n      swap2\n      pop\n      pop\n      0x01\n      swap1\n      sub\n      swap1\n      0x00\n      mstore\n      keccak256(0x00, 0x20)\n      swap1\n      0x03\n      mul\n      add\n      0x00\n      swap1\n      swap2\n      swap1\n      swap2\n      swap1\n      swap2\n      pop\n      0x00\n      dup3\n      add\n      mload\n      dup2\n      0x00\n      add\n      swap1\n      dup2\n      tag_17\n      swap2\n      swap1\n      tag_18\n      jump\t// in\n    tag_17:\n      pop\n      0x20\n      dup3\n      add\n      mload\n      dup2\n      0x01\n      add\n      sstore\n      0x40\n      dup3\n      add\n      mload\n      dup2\n      0x02\n      add\n      exp(0x0100, 0x00)\n      dup2\n      sload\n      dup2\n      0xffffffffffffffffffffffffffffffffffffffff\n      mul\n      not\n      and\n      swap1\n      dup4\n      0xffffffffffffffffffffffffffffffffffffffff\n      and\n      mul\n      or\n      swap1\n      sstore\n      pop\n      pop\n      pop\n        /* \"structure.sol\":241:428  function addUser(string memory _name, uint _age) public {... */\n      pop\n      pop\n      jump\t// out\n        /* \"structure.sol\":213:232  User[] public users */\n    tag_12:\n      0x00\n      dup2\n      dup2\n      sload\n      dup2\n      lt\n      tag_19\n      jumpi\n      0x00\n      dup1\n      revert\n    tag_19:\n      swap1\n      0x00\n      mstore\n      keccak256(0x00, 0x20)\n      swap1\n      0x03\n      mul\n      add\n      0x00\n      swap2\n      pop\n      swap1\n      pop\n      dup1\n      0x00\n      add\n      dup1\n      sload\n      tag_21\n      swap1\n      tag_22\n      jump\t// in\n    tag_21:\n      dup1\n      0x1f\n      add\n      0x20\n      dup1\n      swap2\n      div\n      mul\n      0x20\n      add\n      mload(0x40)\n      swap1\n      dup2\n      add\n      0x40\n      mstore\n      dup1\n      swap3\n      swap2\n      swap1\n      dup2\n      dup2\n      mstore\n      0x20\n      add\n      dup3\n      dup1\n      sload\n      tag_23\n      swap1\n      tag_22\n      jump\t// in\n    tag_23:\n      dup1\n      iszero\n      tag_24\n      jumpi\n      dup1\n      0x1f\n      lt\n      tag_25\n      jumpi\n      0x0100\n      dup1\n      dup4\n      sload\n      div\n      mul\n      dup4\n      mstore\n      swap2\n      0x20\n      add\n      swap2\n      jump(tag_24)\n    tag_25:\n      dup3\n      add\n      swap2\n      swap1\n      0x00\n      mstore\n      keccak256(0x00, 0x20)\n      swap1\n    tag_26:\n      dup2\n      sload\n      dup2\n      mstore\n      swap1\n      0x01\n      add\n      swap1\n      0x20\n      add\n      dup1\n      dup4\n      gt\n      tag_26\n      jumpi\n      dup3\n      swap1\n      sub\n      0x1f\n      and\n      dup3\n      add\n      swap2\n    tag_24:\n      pop\n      pop\n      pop\n      pop\n      pop\n      swap1\n      dup1\n      0x01\n      add\n      sload\n      swap1\n      dup1\n      0x02\n      add\n      0x00\n      swap1\n      sload\n      swap1\n      0x0100\n      exp\n      swap1\n      div\n      0xffffffffffffffffffffffffffffffffffffffff\n      and\n      swap1\n      pop\n      dup4\n      jump\t// out\n        /* \"#utility.yul\":7:82   */\n    tag_27:\n        /* \"#utility.yul\":40:46   */\n      0x00\n        /* \"#utility.yul\":73:75   */\n      0x40\n        /* \"#utility.yul\":67:76   */\n      mload\n        /* \"#utility.yul\":57:76   */\n      swap1\n      pop\n        /* \"#utility.yul\":7:82   */\n      swap1\n      jump\t// out\n        /* \"#utility.yul\":88:205   */\n    tag_28:\n        /* \"#utility.yul\":197:198   */\n      0x00\n        /* \"#utility.yul\":194:195   */\n      0x00\n        /* \"#utility.yul\":187:199   */\n      revert\n        /* \"#utility.yul\":211:328   */\n    tag_29:\n        /* \"#utility.yul\":320:321   */\n      0x00\n        /* \"#utility.yul\":317:318   */\n      0x00\n        /* \"#utility.yul\":310:322   */\n      revert\n        /* \"#utility.yul\":334:451   */\n    tag_30:\n        /* \"#utility.yul\":443:444   */\n      0x00\n        /* \"#utility.yul\":440:441   */\n      0x00\n        /* \"#utility.yul\":433:445   */\n      revert\n        /* \"#utility.yul\":457:574   */\n    tag_31:\n        /* \"#utility.yul\":566:567   */\n      0x00\n        /* \"#utility.yul\":563:564   */\n      0x00\n        /* \"#utility.yul\":556:568   */\n      revert\n        /* \"#utility.yul\":580:682   */\n    tag_32:\n        /* \"#utility.yul\":621:627   */\n      0x00\n        /* \"#utility.yul\":672:674   */\n      0x1f\n        /* \"#utility.yul\":668:675   */\n      not\n        /* \"#utility.yul\":663:665   */\n      0x1f\n        /* \"#utility.yul\":656:661   */\n      dup4\n        /* \"#utility.yul\":652:666   */\n      add\n        /* \"#utility.yul\":648:676   */\n      and\n        /* \"#utility.yul\":638:676   */\n      swap1\n      pop\n        /* \"#utility.yul\":580:682   */\n      swap2\n      swap1\n      pop\n      jump\t// out\n        /* \"#utility.yul\":688:868   */\n    tag_33:\n        /* \"#utility.yul\":736:813   */\n      0x4e487b7100000000000000000000000000000000000000000000000000000000\n        /* \"#utility.yul\":733:734   */\n      0x00\n        /* \"#utility.yul\":726:814   */\n      mstore\n        /* \"#utility.yul\":833:837   */\n      0x41\n        /* \"#utility.yul\":830:831   */\n      0x04\n        /* \"#utility.yul\":823:838   */\n      mstore\n        /* \"#utility.yul\":857:861   */\n      0x24\n        /* \"#utility.yul\":854:855   */\n      0x00\n        /* \"#utility.yul\":847:862   */\n      revert\n        /* \"#utility.yul\":874:1155   */\n    tag_34:\n        /* \"#utility.yul\":957:984   */\n      tag_76\n        /* \"#utility.yul\":979:983   */\n      dup3\n        /* \"#utility.yul\":957:984   */\n      tag_32\n      jump\t// in\n    tag_76:\n        /* \"#utility.yul\":949:955   */\n      dup2\n        /* \"#utility.yul\":945:985   */\n      add\n        /* \"#utility.yul\":1087:1093   */\n      dup2\n        /* \"#utility.yul\":1075:1085   */\n      dup2\n        /* \"#utility.yul\":1072:1094   */\n      lt\n        /* \"#utility.yul\":1051:1069   */\n      0xffffffffffffffff\n        /* \"#utility.yul\":1039:1049   */\n      dup3\n        /* \"#utility.yul\":1036:1070   */\n      gt\n        /* \"#utility.yul\":1033:1095   */\n      or\n        /* \"#utility.yul\":1030:1118   */\n      iszero\n      tag_77\n      jumpi\n        /* \"#utility.yul\":1098:1116   */\n      tag_78\n      tag_33\n      jump\t// in\n    tag_78:\n        /* \"#utility.yul\":1030:1118   */\n    tag_77:\n        /* \"#utility.yul\":1138:1148   */\n      dup1\n        /* \"#utility.yul\":1134:1136   */\n      0x40\n        /* \"#utility.yul\":1127:1149   */\n      mstore\n        /* \"#utility.yul\":917:1155   */\n      pop\n        /* \"#utility.yul\":874:1155   */\n      pop\n      pop\n      jump\t// out\n        /* \"#utility.yul\":1161:1290   */\n    tag_35:\n        /* \"#utility.yul\":1195:1201   */\n      0x00\n        /* \"#utility.yul\":1222:1242   */\n      tag_80\n      tag_27\n      jump\t// in\n    tag_80:\n        /* \"#utility.yul\":1212:1242   */\n      swap1\n      pop\n        /* \"#utility.yul\":1251:1284   */\n      tag_81\n        /* \"#utility.yul\":1279:1283   */\n      dup3\n        /* \"#utility.yul\":1271:1277   */\n      dup3\n        /* \"#utility.yul\":1251:1284   */\n      tag_34\n      jump\t// in\n    tag_81:\n        /* \"#utility.yul\":1161:1290   */\n      swap2\n      swap1\n      pop\n      jump\t// out\n        /* \"#utility.yul\":1296:1604   */\n    tag_36:\n        /* \"#utility.yul\":1358:1362   */\n      0x00\n        /* \"#utility.yul\":1448:1466   */\n      0xffffffffffffffff\n        /* \"#utility.yul\":1440:1446   */\n      dup3\n        /* \"#utility.yul\":1437:1467   */\n      gt\n        /* \"#utility.yul\":1434:1490   */\n      iszero\n      tag_83\n      jumpi\n        /* \"#utility.yul\":1470:1488   */\n      tag_84\n      tag_33\n      jump\t// in\n    tag_84:\n        /* \"#utility.yul\":1434:1490   */\n    tag_83:\n        /* \"#utility.yul\":1508:1537   */\n      tag_85\n        /* \"#utility.yul\":1530:1536   */\n      dup3\n        /* \"#utility.yul\":1508:1537   */\n      tag_32\n      jump\t// in\n    tag_85:\n        /* \"#utility.yul\":1500:1537   */\n      swap1\n      pop\n        /* \"#utility.yul\":1592:1596   */\n      0x20\n        /* \"#utility.yul\":1586:1590   */\n      dup2\n        /* \"#utility.yul\":1582:1597   */\n      add\n        /* \"#utility.yul\":1574:1597   */\n      swap1\n      pop\n        /* \"#utility.yul\":1296:1604   */\n      swap2\n      swap1\n      pop\n      jump\t// out\n        /* \"#utility.yul\":1610:1758   */\n    tag_37:\n        /* \"#utility.yul\":1708:1714   */\n      dup3\n        /* \"#utility.yul\":1703:1706   */\n      dup2\n        /* \"#utility.yul\":1698:1701   */\n      dup4\n        /* \"#utility.yul\":1685:1715   */\n      calldatacopy\n        /* \"#utility.yul\":1749:1750   */\n      0x00\n        /* \"#utility.yul\":1740:1746   */\n      dup4\n        /* \"#utility.yul\":1735:1738   */\n      dup4\n        /* \"#utility.yul\":1731:1747   */\n      add\n        /* \"#utility.yul\":1724:1751   */\n      mstore\n        /* \"#utility.yul\":1610:1758   */\n      pop\n      pop\n      pop\n      jump\t// out\n        /* \"#utility.yul\":1764:2189   */\n    tag_38:\n        /* \"#utility.yul\":1842:1847   */\n      0x00\n        /* \"#utility.yul\":1867:1933   */\n      tag_88\n        /* \"#utility.yul\":1883:1932   */\n      tag_89\n        /* \"#utility.yul\":1925:1931   */\n      dup5\n        /* \"#utility.yul\":1883:1932   */\n      tag_36\n      jump\t// in\n    tag_89:\n        /* \"#utility.yul\":1867:1933   */\n      tag_35\n      jump\t// in\n    tag_88:\n        /* \"#utility.yul\":1858:1933   */\n      swap1\n      pop\n        /* \"#utility.yul\":1956:1962   */\n      dup3\n        /* \"#utility.yul\":1949:1954   */\n      dup2\n        /* \"#utility.yul\":1942:1963   */\n      mstore\n        /* \"#utility.yul\":1994:1998   */\n      0x20\n        /* \"#utility.yul\":1987:1992   */\n      dup2\n        /* \"#utility.yul\":1983:1999   */\n      add\n        /* \"#utility.yul\":2032:2035   */\n      dup5\n        /* \"#utility.yul\":2023:2029   */\n      dup5\n        /* \"#utility.yul\":2018:2021   */\n      dup5\n        /* \"#utility.yul\":2014:2030   */\n      add\n        /* \"#utility.yul\":2011:2036   */\n      gt\n        /* \"#utility.yul\":2008:2120   */\n      iszero\n      tag_90\n      jumpi\n        /* \"#utility.yul\":2039:2118   */\n      tag_91\n      tag_31\n      jump\t// in\n    tag_91:\n        /* \"#utility.yul\":2008:2120   */\n    tag_90:\n        /* \"#utility.yul\":2129:2183   */\n      tag_92\n        /* \"#utility.yul\":2176:2182   */\n      dup5\n        /* \"#utility.yul\":2171:2174   */\n      dup3\n        /* \"#utility.yul\":2166:2169   */\n      dup6\n        /* \"#utility.yul\":2129:2183   */\n      tag_37\n      jump\t// in\n    tag_92:\n        /* \"#utility.yul\":1848:2189   */\n      pop\n        /* \"#utility.yul\":1764:2189   */\n      swap4\n      swap3\n      pop\n      pop\n      pop\n      jump\t// out\n        /* \"#utility.yul\":2209:2549   */\n    tag_39:\n        /* \"#utility.yul\":2265:2270   */\n      0x00\n        /* \"#utility.yul\":2314:2317   */\n      dup3\n        /* \"#utility.yul\":2307:2311   */\n      0x1f\n        /* \"#utility.yul\":2299:2305   */\n      dup4\n        /* \"#utility.yul\":2295:2312   */\n      add\n        /* \"#utility.yul\":2291:2318   */\n      slt\n        /* \"#utility.yul\":2281:2403   */\n      tag_94\n      jumpi\n        /* \"#utility.yul\":2322:2401   */\n      tag_95\n      tag_30\n      jump\t// in\n    tag_95:\n        /* \"#utility.yul\":2281:2403   */\n    tag_94:\n        /* \"#utility.yul\":2439:2445   */\n      dup2\n        /* \"#utility.yul\":2426:2446   */\n      calldataload\n        /* \"#utility.yul\":2464:2543   */\n      tag_96\n        /* \"#utility.yul\":2539:2542   */\n      dup5\n        /* \"#utility.yul\":2531:2537   */\n      dup3\n        /* \"#utility.yul\":2524:2528   */\n      0x20\n        /* \"#utility.yul\":2516:2522   */\n      dup7\n        /* \"#utility.yul\":2512:2529   */\n      add\n        /* \"#utility.yul\":2464:2543   */\n      tag_38\n      jump\t// in\n    tag_96:\n        /* \"#utility.yul\":2455:2543   */\n      swap2\n      pop\n        /* \"#utility.yul\":2271:2549   */\n      pop\n        /* \"#utility.yul\":2209:2549   */\n      swap3\n      swap2\n      pop\n      pop\n      jump\t// out\n        /* \"#utility.yul\":2555:2632   */\n    tag_40:\n        /* \"#utility.yul\":2592:2599   */\n      0x00\n        /* \"#utility.yul\":2621:2626   */\n      dup2\n        /* \"#utility.yul\":2610:2626   */\n      swap1\n      pop\n        /* \"#utility.yul\":2555:2632   */\n      swap2\n      swap1\n      pop\n      jump\t// out\n        /* \"#utility.yul\":2638:2760   */\n    tag_41:\n        /* \"#utility.yul\":2711:2735   */\n      tag_99\n        /* \"#utility.yul\":2729:2734   */\n      dup2\n        /* \"#utility.yul\":2711:2735   */\n      tag_40\n      jump\t// in\n    tag_99:\n        /* \"#utility.yul\":2704:2709   */\n      dup2\n        /* \"#utility.yul\":2701:2736   */\n      eq\n        /* \"#utility.yul\":2691:2754   */\n      tag_100\n      jumpi\n        /* \"#utility.yul\":2750:2751   */\n      0x00\n        /* \"#utility.yul\":2747:2748   */\n      0x00\n        /* \"#utility.yul\":2740:2752   */\n      revert\n        /* \"#utility.yul\":2691:2754   */\n    tag_100:\n        /* \"#utility.yul\":2638:2760   */\n      pop\n      jump\t// out\n        /* \"#utility.yul\":2766:2905   */\n    tag_42:\n        /* \"#utility.yul\":2812:2817   */\n      0x00\n        /* \"#utility.yul\":2850:2856   */\n      dup2\n        /* \"#utility.yul\":2837:2857   */\n      calldataload\n        /* \"#utility.yul\":2828:2857   */\n      swap1\n      pop\n        /* \"#utility.yul\":2866:2899   */\n      tag_102\n        /* \"#utility.yul\":2893:2898   */\n      dup2\n        /* \"#utility.yul\":2866:2899   */\n      tag_41\n      jump\t// in\n    tag_102:\n        /* \"#utility.yul\":2766:2905   */\n      swap3\n      swap2\n      pop\n      pop\n      jump\t// out\n        /* \"#utility.yul\":2911:3565   */\n    tag_7:\n        /* \"#utility.yul\":2989:2995   */\n      0x00\n        /* \"#utility.yul\":2997:3003   */\n      0x00\n        /* \"#utility.yul\":3046:3048   */\n      0x40\n        /* \"#utility.yul\":3034:3043   */\n      dup4\n        /* \"#utility.yul\":3025:3032   */\n      dup6\n        /* \"#utility.yul\":3021:3044   */\n      sub\n        /* \"#utility.yul\":3017:3049   */\n      slt\n        /* \"#utility.yul\":3014:3133   */\n      iszero\n      tag_104\n      jumpi\n        /* \"#utility.yul\":3052:3131   */\n      tag_105\n      tag_28\n      jump\t// in\n    tag_105:\n        /* \"#utility.yul\":3014:3133   */\n    tag_104:\n        /* \"#utility.yul\":3200:3201   */\n      0x00\n        /* \"#utility.yul\":3189:3198   */\n      dup4\n        /* \"#utility.yul\":3185:3202   */\n      add\n        /* \"#utility.yul\":3172:3203   */\n      calldataload\n        /* \"#utility.yul\":3230:3248   */\n      0xffffffffffffffff\n        /* \"#utility.yul\":3222:3228   */\n      dup2\n        /* \"#utility.yul\":3219:3249   */\n      gt\n        /* \"#utility.yul\":3216:3333   */\n      iszero\n      tag_106\n      jumpi\n        /* \"#utility.yul\":3252:3331   */\n      tag_107\n      tag_29\n      jump\t// in\n    tag_107:\n        /* \"#utility.yul\":3216:3333   */\n    tag_106:\n        /* \"#utility.yul\":3357:3420   */\n      tag_108\n        /* \"#utility.yul\":3412:3419   */\n      dup6\n        /* \"#utility.yul\":3403:3409   */\n      dup3\n        /* \"#utility.yul\":3392:3401   */\n      dup7\n        /* \"#utility.yul\":3388:3410   */\n      add\n        /* \"#utility.yul\":3357:3420   */\n      tag_39\n      jump\t// in\n    tag_108:\n        /* \"#utility.yul\":3347:3420   */\n      swap3\n      pop\n        /* \"#utility.yul\":3143:3430   */\n      pop\n        /* \"#utility.yul\":3469:3471   */\n      0x20\n        /* \"#utility.yul\":3495:3548   */\n      tag_109\n        /* \"#utility.yul\":3540:3547   */\n      dup6\n        /* \"#utility.yul\":3531:3537   */\n      dup3\n        /* \"#utility.yul\":3520:3529   */\n      dup7\n        /* \"#utility.yul\":3516:3538   */\n      add\n        /* \"#utility.yul\":3495:3548   */\n      tag_42\n      jump\t// in\n    tag_109:\n        /* \"#utility.yul\":3485:3548   */\n      swap2\n      pop\n        /* \"#utility.yul\":3440:3558   */\n      pop\n        /* \"#utility.yul\":2911:3565   */\n      swap3\n      pop\n      swap3\n      swap1\n      pop\n      jump\t// out\n        /* \"#utility.yul\":3571:3900   */\n    tag_11:\n        /* \"#utility.yul\":3630:3636   */\n      0x00\n        /* \"#utility.yul\":3679:3681   */\n      0x20\n        /* \"#utility.yul\":3667:3676   */\n      dup3\n        /* \"#utility.yul\":3658:3665   */\n      dup5\n        /* \"#utility.yul\":3654:3677   */\n      sub\n        /* \"#utility.yul\":3650:3682   */\n      slt\n        /* \"#utility.yul\":3647:3766   */\n      iszero\n      tag_111\n      jumpi\n        /* \"#utility.yul\":3685:3764   */\n      tag_112\n      tag_28\n      jump\t// in\n    tag_112:\n        /* \"#utility.yul\":3647:3766   */\n    tag_111:\n        /* \"#utility.yul\":3805:3806   */\n      0x00\n        /* \"#utility.yul\":3830:3883   */\n      tag_113\n        /* \"#utility.yul\":3875:3882   */\n      dup5\n        /* \"#utility.yul\":3866:3872   */\n      dup3\n        /* \"#utility.yul\":3855:3864   */\n      dup6\n        /* \"#utility.yul\":3851:3873   */\n      add\n        /* \"#utility.yul\":3830:3883   */\n      tag_42\n      jump\t// in\n    tag_113:\n        /* \"#utility.yul\":3820:3883   */\n      swap2\n      pop\n        /* \"#utility.yul\":3776:3893   */\n      pop\n        /* \"#utility.yul\":3571:3900   */\n      swap3\n      swap2\n      pop\n      pop\n      jump\t// out\n        /* \"#utility.yul\":3906:4005   */\n    tag_43:\n        /* \"#utility.yul\":3958:3964   */\n      0x00\n        /* \"#utility.yul\":3992:3997   */\n      dup2\n        /* \"#utility.yul\":3986:3998   */\n      mload\n        /* \"#utility.yul\":3976:3998   */\n      swap1\n      pop\n        /* \"#utility.yul\":3906:4005   */\n      swap2\n      swap1\n      pop\n      jump\t// out\n        /* \"#utility.yul\":4011:4180   */\n    tag_44:\n        /* \"#utility.yul\":4095:4106   */\n      0x00\n        /* \"#utility.yul\":4129:4135   */\n      dup3\n        /* \"#utility.yul\":4124:4127   */\n      dup3\n        /* \"#utility.yul\":4117:4136   */\n      mstore\n        /* \"#utility.yul\":4169:4173   */\n      0x20\n        /* \"#utility.yul\":4164:4167   */\n      dup3\n        /* \"#utility.yul\":4160:4174   */\n      add\n        /* \"#utility.yul\":4145:4174   */\n      swap1\n      pop\n        /* \"#utility.yul\":4011:4180   */\n      swap3\n      swap2\n      pop\n      pop\n      jump\t// out\n        /* \"#utility.yul\":4186:4325   */\n    tag_45:\n        /* \"#utility.yul\":4275:4281   */\n      dup3\n        /* \"#utility.yul\":4270:4273   */\n      dup2\n        /* \"#utility.yul\":4265:4268   */\n      dup4\n        /* \"#utility.yul\":4259:4282   */\n      mcopy\n        /* \"#utility.yul\":4316:4317   */\n      0x00\n        /* \"#utility.yul\":4307:4313   */\n      dup4\n        /* \"#utility.yul\":4302:4305   */\n      dup4\n        /* \"#utility.yul\":4298:4314   */\n      add\n        /* \"#utility.yul\":4291:4318   */\n      mstore\n        /* \"#utility.yul\":4186:4325   */\n      pop\n      pop\n      pop\n      jump\t// out\n        /* \"#utility.yul\":4331:4708   */\n    tag_46:\n        /* \"#utility.yul\":4419:4422   */\n      0x00\n        /* \"#utility.yul\":4447:4486   */\n      tag_118\n        /* \"#utility.yul\":4480:4485   */\n      dup3\n        /* \"#utility.yul\":4447:4486   */\n      tag_43\n      jump\t// in\n    tag_118:\n        /* \"#utility.yul\":4502:4573   */\n      tag_119\n        /* \"#utility.yul\":4566:4572   */\n      dup2\n        /* \"#utility.yul\":4561:4564   */\n      dup6\n        /* \"#utility.yul\":4502:4573   */\n      tag_44\n      jump\t// in\n    tag_119:\n        /* \"#utility.yul\":4495:4573   */\n      swap4\n      pop\n        /* \"#utility.yul\":4582:4647   */\n      tag_120\n        /* \"#utility.yul\":4640:4646   */\n      dup2\n        /* \"#utility.yul\":4635:4638   */\n      dup6\n        /* \"#utility.yul\":4628:4632   */\n      0x20\n        /* \"#utility.yul\":4621:4626   */\n      dup7\n        /* \"#utility.yul\":4617:4633   */\n      add\n        /* \"#utility.yul\":4582:4647   */\n      tag_45\n      jump\t// in\n    tag_120:\n        /* \"#utility.yul\":4672:4701   */\n      tag_121\n        /* \"#utility.yul\":4694:4700   */\n      dup2\n        /* \"#utility.yul\":4672:4701   */\n      tag_32\n      jump\t// in\n    tag_121:\n        /* \"#utility.yul\":4667:4670   */\n      dup5\n        /* \"#utility.yul\":4663:4702   */\n      add\n        /* \"#utility.yul\":4656:4702   */\n      swap2\n      pop\n        /* \"#utility.yul\":4423:4708   */\n      pop\n        /* \"#utility.yul\":4331:4708   */\n      swap3\n      swap2\n      pop\n      pop\n      jump\t// out\n        /* \"#utility.yul\":4714:4832   */\n    tag_47:\n        /* \"#utility.yul\":4801:4825   */\n      tag_123\n        /* \"#utility.yul\":4819:4824   */\n      dup2\n        /* \"#utility.yul\":4801:4825   */\n      tag_40\n      jump\t// in\n    tag_123:\n        /* \"#utility.yul\":4796:4799   */\n      dup3\n        /* \"#utility.yul\":4789:4826   */\n      mstore\n        /* \"#utility.yul\":4714:4832   */\n      pop\n      pop\n      jump\t// out\n        /* \"#utility.yul\":4838:4964   */\n    tag_48:\n        /* \"#utility.yul\":4875:4882   */\n      0x00\n        /* \"#utility.yul\":4915:4957   */\n      0xffffffffffffffffffffffffffffffffffffffff\n        /* \"#utility.yul\":4908:4913   */\n      dup3\n        /* \"#utility.yul\":4904:4958   */\n      and\n        /* \"#utility.yul\":4893:4958   */\n      swap1\n      pop\n        /* \"#utility.yul\":4838:4964   */\n      swap2\n      swap1\n      pop\n      jump\t// out\n        /* \"#utility.yul\":4970:5066   */\n    tag_49:\n        /* \"#utility.yul\":5007:5014   */\n      0x00\n        /* \"#utility.yul\":5036:5060   */\n      tag_126\n        /* \"#utility.yul\":5054:5059   */\n      dup3\n        /* \"#utility.yul\":5036:5060   */\n      tag_48\n      jump\t// in\n    tag_126:\n        /* \"#utility.yul\":5025:5060   */\n      swap1\n      pop\n        /* \"#utility.yul\":4970:5066   */\n      swap2\n      swap1\n      pop\n      jump\t// out\n        /* \"#utility.yul\":5072:5190   */\n    tag_50:\n        /* \"#utility.yul\":5159:5183   */\n      tag_128\n        /* \"#utility.yul\":5177:5182   */\n      dup2\n        /* \"#utility.yul\":5159:5183   */\n      tag_49\n      jump\t// in\n    tag_128:\n        /* \"#utility.yul\":5154:5157   */\n      dup3\n        /* \"#utility.yul\":5147:5184   */\n      mstore\n        /* \"#utility.yul\":5072:5190   */\n      pop\n      pop\n      jump\t// out\n        /* \"#utility.yul\":5196:5729   */\n    tag_14:\n        /* \"#utility.yul\":5365:5369   */\n      0x00\n        /* \"#utility.yul\":5403:5405   */\n      0x60\n        /* \"#utility.yul\":5392:5401   */\n      dup3\n        /* \"#utility.yul\":5388:5406   */\n      add\n        /* \"#utility.yul\":5380:5406   */\n      swap1\n      pop\n        /* \"#utility.yul\":5452:5461   */\n      dup2\n        /* \"#utility.yul\":5446:5450   */\n      dup2\n        /* \"#utility.yul\":5442:5462   */\n      sub\n        /* \"#utility.yul\":5438:5439   */\n      0x00\n        /* \"#utility.yul\":5427:5436   */\n      dup4\n        /* \"#utility.yul\":5423:5440   */\n      add\n        /* \"#utility.yul\":5416:5463   */\n      mstore\n        /* \"#utility.yul\":5480:5558   */\n      tag_130\n        /* \"#utility.yul\":5553:5557   */\n      dup2\n        /* \"#utility.yul\":5544:5550   */\n      dup7\n        /* \"#utility.yul\":5480:5558   */\n      tag_46\n      jump\t// in\n    tag_130:\n        /* \"#utility.yul\":5472:5558   */\n      swap1\n      pop\n        /* \"#utility.yul\":5568:5640   */\n      tag_131\n        /* \"#utility.yul\":5636:5638   */\n      0x20\n        /* \"#utility.yul\":5625:5634   */\n      dup4\n        /* \"#utility.yul\":5621:5639   */\n      add\n        /* \"#utility.yul\":5612:5618   */\n      dup6\n        /* \"#utility.yul\":5568:5640   */\n      tag_47\n      jump\t// in\n    tag_131:\n        /* \"#utility.yul\":5650:5722   */\n      tag_132\n        /* \"#utility.yul\":5718:5720   */\n      0x40\n        /* \"#utility.yul\":5707:5716   */\n      dup4\n        /* \"#utility.yul\":5703:5721   */\n      add\n        /* \"#utility.yul\":5694:5700   */\n      dup5\n        /* \"#utility.yul\":5650:5722   */\n      tag_50\n      jump\t// in\n    tag_132:\n        /* \"#utility.yul\":5196:5729   */\n      swap5\n      swap4\n      pop\n      pop\n      pop\n      pop\n      jump\t// out\n        /* \"#utility.yul\":5735:5915   */\n    tag_51:\n        /* \"#utility.yul\":5783:5860   */\n      0x4e487b7100000000000000000000000000000000000000000000000000000000\n        /* \"#utility.yul\":5780:5781   */\n      0x00\n        /* \"#utility.yul\":5773:5861   */\n      mstore\n        /* \"#utility.yul\":5880:5884   */\n      0x22\n        /* \"#utility.yul\":5877:5878   */\n      0x04\n        /* \"#utility.yul\":5870:5885   */\n      mstore\n        /* \"#utility.yul\":5904:5908   */\n      0x24\n        /* \"#utility.yul\":5901:5902   */\n      0x00\n        /* \"#utility.yul\":5894:5909   */\n      revert\n        /* \"#utility.yul\":5921:6241   */\n    tag_22:\n        /* \"#utility.yul\":5965:5971   */\n      0x00\n        /* \"#utility.yul\":6002:6003   */\n      0x02\n        /* \"#utility.yul\":5996:6000   */\n      dup3\n        /* \"#utility.yul\":5992:6004   */\n      div\n        /* \"#utility.yul\":5982:6004   */\n      swap1\n      pop\n        /* \"#utility.yul\":6049:6050   */\n      0x01\n        /* \"#utility.yul\":6043:6047   */\n      dup3\n        /* \"#utility.yul\":6039:6051   */\n      and\n        /* \"#utility.yul\":6070:6088   */\n      dup1\n        /* \"#utility.yul\":6060:6141   */\n      tag_135\n      jumpi\n        /* \"#utility.yul\":6126:6130   */\n      0x7f\n        /* \"#utility.yul\":6118:6124   */\n      dup3\n        /* \"#utility.yul\":6114:6131   */\n      and\n        /* \"#utility.yul\":6104:6131   */\n      swap2\n      pop\n        /* \"#utility.yul\":6060:6141   */\n    tag_135:\n        /* \"#utility.yul\":6188:6190   */\n      0x20\n        /* \"#utility.yul\":6180:6186   */\n      dup3\n        /* \"#utility.yul\":6177:6191   */\n      lt\n        /* \"#utility.yul\":6157:6175   */\n      dup2\n        /* \"#utility.yul\":6154:6192   */\n      sub\n        /* \"#utility.yul\":6151:6235   */\n      tag_136\n      jumpi\n        /* \"#utility.yul\":6207:6225   */\n      tag_137\n      tag_51\n      jump\t// in\n    tag_137:\n        /* \"#utility.yul\":6151:6235   */\n    tag_136:\n        /* \"#utility.yul\":5972:6241   */\n      pop\n        /* \"#utility.yul\":5921:6241   */\n      swap2\n      swap1\n      pop\n      jump\t// out\n        /* \"#utility.yul\":6247:6388   */\n    tag_52:\n        /* \"#utility.yul\":6296:6300   */\n      0x00\n        /* \"#utility.yul\":6319:6322   */\n      dup2\n        /* \"#utility.yul\":6311:6322   */\n      swap1\n      pop\n        /* \"#utility.yul\":6342:6345   */\n      dup2\n        /* \"#utility.yul\":6339:6340   */\n      0x00\n        /* \"#utility.yul\":6332:6346   */\n      mstore\n        /* \"#utility.yul\":6376:6380   */\n      0x20\n        /* \"#utility.yul\":6373:6374   */\n      0x00\n        /* \"#utility.yul\":6363:6381   */\n      keccak256\n        /* \"#utility.yul\":6355:6381   */\n      swap1\n      pop\n        /* \"#utility.yul\":6247:6388   */\n      swap2\n      swap1\n      pop\n      jump\t// out\n        /* \"#utility.yul\":6394:6487   */\n    tag_53:\n        /* \"#utility.yul\":6431:6437   */\n      0x00\n        /* \"#utility.yul\":6478:6480   */\n      0x20\n        /* \"#utility.yul\":6473:6475   */\n      0x1f\n        /* \"#utility.yul\":6466:6471   */\n      dup4\n        /* \"#utility.yul\":6462:6476   */\n      add\n        /* \"#utility.yul\":6458:6481   */\n      div\n        /* \"#utility.yul\":6448:6481   */\n      swap1\n      pop\n        /* \"#utility.yul\":6394:6487   */\n      swap2\n      swap1\n      pop\n      jump\t// out\n        /* \"#utility.yul\":6493:6600   */\n    tag_54:\n        /* \"#utility.yul\":6537:6545   */\n      0x00\n        /* \"#utility.yul\":6587:6592   */\n      dup3\n        /* \"#utility.yul\":6581:6585   */\n      dup3\n        /* \"#utility.yul\":6577:6593   */\n      shl\n        /* \"#utility.yul\":6556:6593   */\n      swap1\n      pop\n        /* \"#utility.yul\":6493:6600   */\n      swap3\n      swap2\n      pop\n      pop\n      jump\t// out\n        /* \"#utility.yul\":6606:6999   */\n    tag_55:\n        /* \"#utility.yul\":6675:6681   */\n      0x00\n        /* \"#utility.yul\":6725:6726   */\n      0x08\n        /* \"#utility.yul\":6713:6723   */\n      dup4\n        /* \"#utility.yul\":6709:6727   */\n      mul\n        /* \"#utility.yul\":6748:6845   */\n      tag_142\n        /* \"#utility.yul\":6778:6844   */\n      0xffffffffffffffffffffffffffffffffffffffffffffffffffffffffffffffff\n        /* \"#utility.yul\":6767:6776   */\n      dup3\n        /* \"#utility.yul\":6748:6845   */\n      tag_54\n      jump\t// in\n    tag_142:\n        /* \"#utility.yul\":6866:6905   */\n      tag_143\n        /* \"#utility.yul\":6896:6904   */\n      dup7\n        /* \"#utility.yul\":6885:6894   */\n      dup4\n        /* \"#utility.yul\":6866:6905   */\n      tag_54\n      jump\t// in\n    tag_143:\n        /* \"#utility.yul\":6854:6905   */\n      swap6\n      pop\n        /* \"#utility.yul\":6938:6942   */\n      dup1\n        /* \"#utility.yul\":6934:6943   */\n      not\n        /* \"#utility.yul\":6927:6932   */\n      dup5\n        /* \"#utility.yul\":6923:6944   */\n      and\n        /* \"#utility.yul\":6914:6944   */\n      swap4\n      pop\n        /* \"#utility.yul\":6987:6991   */\n      dup1\n        /* \"#utility.yul\":6977:6985   */\n      dup7\n        /* \"#utility.yul\":6973:6992   */\n      and\n        /* \"#utility.yul\":6966:6971   */\n      dup5\n        /* \"#utility.yul\":6963:6993   */\n      or\n        /* \"#utility.yul\":6953:6993   */\n      swap3\n      pop\n        /* \"#utility.yul\":6682:6999   */\n      pop\n      pop\n        /* \"#utility.yul\":6606:6999   */\n      swap4\n      swap3\n      pop\n      pop\n      pop\n      jump\t// out\n        /* \"#utility.yul\":7005:7065   */\n    tag_56:\n        /* \"#utility.yul\":7033:7036   */\n      0x00\n        /* \"#utility.yul\":7054:7059   */\n      dup2\n        /* \"#utility.yul\":7047:7059   */\n      swap1\n      pop\n        /* \"#utility.yul\":7005:7065   */\n      swap2\n      swap1\n      pop\n      jump\t// out\n        /* \"#utility.yul\":7071:7213   */\n    tag_57:\n        /* \"#utility.yul\":7121:7130   */\n      0x00\n        /* \"#utility.yul\":7154:7207   */\n      tag_146\n        /* \"#utility.yul\":7172:7206   */\n      tag_147\n        /* \"#utility.yul\":7181:7205   */\n      tag_148\n        /* \"#utility.yul\":7199:7204   */\n      dup5\n        /* \"#utility.yul\":7181:7205   */\n      tag_40\n      jump\t// in\n    tag_148:\n        /* \"#utility.yul\":7172:7206   */\n      tag_56\n      jump\t// in\n    tag_147:\n        /* \"#utility.yul\":7154:7207   */\n      tag_40\n      jump\t// in\n    tag_146:\n        /* \"#utility.yul\":7141:7207   */\n      swap1\n      pop\n        /* \"#utility.yul\":7071:7213   */\n      swap2\n      swap1\n      pop\n      jump\t// out\n        /* \"#utility.yul\":7219:7294   */\n    tag_58:\n        /* \"#utility.yul\":7262:7265   */\n      0x00\n        /* \"#utility.yul\":7283:7288   */\n      dup2\n        /* \"#utility.yul\":7276:7288   */\n      swap1\n      pop\n        /* \"#utility.yul\":7219:7294   */\n      swap2\n      swap1\n      pop\n      jump\t// out\n        /* \"#utility.yul\":7300:7569   */\n    tag_59:\n        /* \"#utility.yul\":7410:7449   */\n      tag_151\n        /* \"#utility.yul\":7441:7448   */\n      dup4\n        /* \"#utility.yul\":7410:7449   */\n      tag_57\n      jump\t// in\n    tag_151:\n        /* \"#utility.yul\":7471:7562   */\n      tag_152\n        /* \"#utility.yul\":7520:7561   */\n      tag_153\n        /* \"#utility.yul\":7544:7560   */\n      dup3\n        /* \"#utility.yul\":7520:7561   */\n      tag_58\n      jump\t// in\n    tag_153:\n        /* \"#utility.yul\":7512:7518   */\n      dup5\n        /* \"#utility.yul\":7505:7509   */\n      dup5\n        /* \"#utility.yul\":7499:7510   */\n      sload\n        /* \"#utility.yul\":7471:7562   */\n      tag_55\n      jump\t// in\n    tag_152:\n        /* \"#utility.yul\":7465:7469   */\n      dup3\n        /* \"#utility.yul\":7458:7563   */\n      sstore\n        /* \"#utility.yul\":7376:7569   */\n      pop\n        /* \"#utility.yul\":7300:7569   */\n      pop\n      pop\n      pop\n      jump\t// out\n        /* \"#utility.yul\":7575:7648   */\n    tag_60:\n        /* \"#utility.yul\":7620:7623   */\n      0x00\n        /* \"#utility.yul\":7641:7642   */\n      0x00\n        /* \"#utility.yul\":7634:7642   */\n      swap1\n      pop\n        /* \"#utility.yul\":7575:7648   */\n      swap1\n      jump\t// out\n        /* \"#utility.yul\":7654:7843   */\n    tag_61:\n        /* \"#utility.yul\":7731:7763   */\n      tag_156\n      tag_60\n      jump\t// in\n    tag_156:\n        /* \"#utility.yul\":7772:7837   */\n      tag_157\n        /* \"#utility.yul\":7830:7836   */\n      dup2\n        /* \"#utility.yul\":7822:7828   */\n      dup5\n        /* \"#utility.yul\":7816:7820   */\n      dup5\n        /* \"#utility.yul\":7772:7837   */\n      tag_59\n      jump\t// in\n    tag_157:\n        /* \"#utility.yul\":7707:7843   */\n      pop\n        /* \"#utility.yul\":7654:7843   */\n      pop\n      pop\n      jump\t// out\n        /* \"#utility.yul\":7849:8035   */\n    tag_62:\n        /* \"#utility.yul\":7909:8029   */\n    tag_159:\n        /* \"#utility.yul\":7926:7929   */\n      dup2\n        /* \"#utility.yul\":7919:7924   */\n      dup2\n        /* \"#utility.yul\":7916:7930   */\n      lt\n        /* \"#utility.yul\":7909:8029   */\n      iszero\n      tag_161\n      jumpi\n        /* \"#utility.yul\":7980:8019   */\n      tag_162\n        /* \"#utility.yul\":8017:8018   */\n      0x00\n        /* \"#utility.yul\":8010:8015   */\n      dup3\n        /* \"#utility.yul\":7980:8019   */\n      tag_61\n      jump\t// in\n    tag_162:\n        /* \"#utility.yul\":7953:7954   */\n      0x01\n        /* \"#utility.yul\":7946:7951   */\n      dup2\n        /* \"#utility.yul\":7942:7955   */\n      add\n        /* \"#utility.yul\":7933:7955   */\n      swap1\n      pop\n        /* \"#utility.yul\":7909:8029   */\n      jump(tag_159)\n    tag_161:\n        /* \"#utility.yul\":7849:8035   */\n      pop\n      pop\n      jump\t// out\n        /* \"#utility.yul\":8041:8584   */\n    tag_63:\n        /* \"#utility.yul\":8142:8144   */\n      0x1f\n        /* \"#utility.yul\":8137:8140   */\n      dup3\n        /* \"#utility.yul\":8134:8145   */\n      gt\n        /* \"#utility.yul\":8131:8577   */\n      iszero\n      tag_164\n      jumpi\n        /* \"#utility.yul\":8176:8214   */\n      tag_165\n        /* \"#utility.yul\":8208:8213   */\n      dup2\n        /* \"#utility.yul\":8176:8214   */\n      tag_52\n      jump\t// in\n    tag_165:\n        /* \"#utility.yul\":8260:8289   */\n      tag_166\n        /* \"#utility.yul\":8278:8288   */\n      dup5\n        /* \"#utility.yul\":8260:8289   */\n      tag_53\n      jump\t// in\n    tag_166:\n        /* \"#utility.yul\":8250:8258   */\n      dup2\n        /* \"#utility.yul\":8246:8290   */\n      add\n        /* \"#utility.yul\":8443:8445   */\n      0x20\n        /* \"#utility.yul\":8431:8441   */\n      dup6\n        /* \"#utility.yul\":8428:8446   */\n      lt\n        /* \"#utility.yul\":8425:8474   */\n      iszero\n      tag_167\n      jumpi\n        /* \"#utility.yul\":8464:8472   */\n      dup2\n        /* \"#utility.yul\":8449:8472   */\n      swap1\n      pop\n        /* \"#utility.yul\":8425:8474   */\n    tag_167:\n        /* \"#utility.yul\":8487:8567   */\n      tag_168\n        /* \"#utility.yul\":8543:8565   */\n      tag_169\n        /* \"#utility.yul\":8561:8564   */\n      dup6\n        /* \"#utility.yul\":8543:8565   */\n      tag_53\n      jump\t// in\n    tag_169:\n        /* \"#utility.yul\":8533:8541   */\n      dup4\n        /* \"#utility.yul\":8529:8566   */\n      add\n        /* \"#utility.yul\":8516:8527   */\n      dup3\n        /* \"#utility.yul\":8487:8567   */\n      tag_62\n      jump\t// in\n    tag_168:\n        /* \"#utility.yul\":8146:8577   */\n      pop\n      pop\n        /* \"#utility.yul\":8131:8577   */\n    tag_164:\n        /* \"#utility.yul\":8041:8584   */\n      pop\n      pop\n      pop\n      jump\t// out\n        /* \"#utility.yul\":8590:8707   */\n    tag_64:\n        /* \"#utility.yul\":8644:8652   */\n      0x00\n        /* \"#utility.yul\":8694:8699   */\n      dup3\n        /* \"#utility.yul\":8688:8692   */\n      dup3\n        /* \"#utility.yul\":8684:8700   */\n      shr\n        /* \"#utility.yul\":8663:8700   */\n      swap1\n      pop\n        /* \"#utility.yul\":8590:8707   */\n      swap3\n      swap2\n      pop\n      pop\n      jump\t// out\n        /* \"#utility.yul\":8713:8882   */\n    tag_65:\n        /* \"#utility.yul\":8757:8763   */\n      0x00\n        /* \"#utility.yul\":8790:8841   */\n      tag_172\n        /* \"#utility.yul\":8838:8839   */\n      0x00\n        /* \"#utility.yul\":8834:8840   */\n      not\n        /* \"#utility.yul\":8826:8831   */\n      dup5\n        /* \"#utility.yul\":8823:8824   */\n      0x08\n        /* \"#utility.yul\":8819:8832   */\n      mul\n        /* \"#utility.yul\":8790:8841   */\n      tag_64\n      jump\t// in\n    tag_172:\n        /* \"#utility.yul\":8786:8842   */\n      not\n        /* \"#utility.yul\":8871:8875   */\n      dup1\n        /* \"#utility.yul\":8865:8869   */\n      dup4\n        /* \"#utility.yul\":8861:8876   */\n      and\n        /* \"#utility.yul\":8851:8876   */\n      swap2\n      pop\n        /* \"#utility.yul\":8764:8882   */\n      pop\n        /* \"#utility.yul\":8713:8882   */\n      swap3\n      swap2\n      pop\n      pop\n      jump\t// out\n        /* \"#utility.yul\":8887:9182   */\n    tag_66:\n        /* \"#utility.yul\":8963:8967   */\n      0x00\n        /* \"#utility.yul\":9109:9138   */\n      tag_174\n        /* \"#utility.yul\":9134:9137   */\n      dup4\n        /* \"#utility.yul\":9128:9132   */\n      dup4\n        /* \"#utility.yul\":9109:9138   */\n      tag_65\n      jump\t// in\n    tag_174:\n        /* \"#utility.yul\":9101:9138   */\n      swap2\n      pop\n        /* \"#utility.yul\":9171:9174   */\n      dup3\n        /* \"#utility.yul\":9168:9169   */\n      0x02\n        /* \"#utility.yul\":9164:9175   */\n      mul\n        /* \"#utility.yul\":9158:9162   */\n      dup3\n        /* \"#utility.yul\":9155:9176   */\n      or\n        /* \"#utility.yul\":9147:9176   */\n      swap1\n      pop\n        /* \"#utility.yul\":8887:9182   */\n      swap3\n      swap2\n      pop\n      pop\n      jump\t// out\n        /* \"#utility.yul\":9187:10582   */\n    tag_18:\n        /* \"#utility.yul\":9304:9341   */\n      tag_176\n        /* \"#utility.yul\":9337:9340   */\n      dup3\n        /* \"#utility.yul\":9304:9341   */\n      tag_43\n      jump\t// in\n    tag_176:\n        /* \"#utility.yul\":9406:9424   */\n      0xffffffffffffffff\n        /* \"#utility.yul\":9398:9404   */\n      dup2\n        /* \"#utility.yul\":9395:9425   */\n      gt\n        /* \"#utility.yul\":9392:9448   */\n      iszero\n      tag_177\n      jumpi\n        /* \"#utility.yul\":9428:9446   */\n      tag_178\n      tag_33\n      jump\t// in\n    tag_178:\n        /* \"#utility.yul\":9392:9448   */\n    tag_177:\n        /* \"#utility.yul\":9472:9510   */\n      tag_179\n        /* \"#utility.yul\":9504:9508   */\n      dup3\n        /* \"#utility.yul\":9498:9509   */\n      sload\n        /* \"#utility.yul\":9472:9510   */\n      tag_22\n      jump\t// in\n    tag_179:\n        /* \"#utility.yul\":9557:9624   */\n      tag_180\n        /* \"#utility.yul\":9617:9623   */\n      dup3\n        /* \"#utility.yul\":9609:9615   */\n      dup3\n        /* \"#utility.yul\":9603:9607   */\n      dup6\n        /* \"#utility.yul\":9557:9624   */\n      tag_63\n      jump\t// in\n    tag_180:\n        /* \"#utility.yul\":9651:9652   */\n      0x00\n        /* \"#utility.yul\":9675:9679   */\n      0x20\n        /* \"#utility.yul\":9662:9679   */\n      swap1\n      pop\n        /* \"#utility.yul\":9707:9709   */\n      0x1f\n        /* \"#utility.yul\":9699:9705   */\n      dup4\n        /* \"#utility.yul\":9696:9710   */\n      gt\n        /* \"#utility.yul\":9724:9725   */\n      0x01\n        /* \"#utility.yul\":9719:10337   */\n      dup2\n      eq\n      tag_182\n      jumpi\n        /* \"#utility.yul\":10381:10382   */\n      0x00\n        /* \"#utility.yul\":10398:10404   */\n      dup5\n        /* \"#utility.yul\":10395:10472   */\n      iszero\n      tag_183\n      jumpi\n        /* \"#utility.yul\":10447:10456   */\n      dup3\n        /* \"#utility.yul\":10442:10445   */\n      dup8\n        /* \"#utility.yul\":10438:10457   */\n      add\n        /* \"#utility.yul\":10432:10458   */\n      mload\n        /* \"#utility.yul\":10423:10458   */\n      swap1\n      pop\n        /* \"#utility.yul\":10395:10472   */\n    tag_183:\n        /* \"#utility.yul\":10498:10565   */\n      tag_184\n        /* \"#utility.yul\":10558:10564   */\n      dup6\n        /* \"#utility.yul\":10551:10556   */\n      dup3\n        /* \"#utility.yul\":10498:10565   */\n      tag_66\n      jump\t// in\n    tag_184:\n        /* \"#utility.yul\":10492:10496   */\n      dup7\n        /* \"#utility.yul\":10485:10566   */\n      sstore\n        /* \"#utility.yul\":10354:10576   */\n      pop\n        /* \"#utility.yul\":9689:10576   */\n      jump(tag_181)\n        /* \"#utility.yul\":9719:10337   */\n    tag_182:\n        /* \"#utility.yul\":9771:9775   */\n      0x1f\n        /* \"#utility.yul\":9767:9776   */\n      not\n        /* \"#utility.yul\":9759:9765   */\n      dup5\n        /* \"#utility.yul\":9755:9777   */\n      and\n        /* \"#utility.yul\":9805:9842   */\n      tag_185\n        /* \"#utility.yul\":9837:9841   */\n      dup7\n        /* \"#utility.yul\":9805:9842   */\n      tag_52\n      jump\t// in\n    tag_185:\n        /* \"#utility.yul\":9864:9865   */\n      0x00\n        /* \"#utility.yul\":9878:10086   */\n    tag_186:\n        /* \"#utility.yul\":9892:9899   */\n      dup3\n        /* \"#utility.yul\":9889:9890   */\n      dup2\n        /* \"#utility.yul\":9886:9900   */\n      lt\n        /* \"#utility.yul\":9878:10086   */\n      iszero\n      tag_188\n      jumpi\n        /* \"#utility.yul\":9971:9980   */\n      dup5\n        /* \"#utility.yul\":9966:9969   */\n      dup10\n        /* \"#utility.yul\":9962:9981   */\n      add\n        /* \"#utility.yul\":9956:9982   */\n      mload\n        /* \"#utility.yul\":9948:9954   */\n      dup3\n        /* \"#utility.yul\":9941:9983   */\n      sstore\n        /* \"#utility.yul\":10022:10023   */\n      0x01\n        /* \"#utility.yul\":10014:10020   */\n      dup3\n        /* \"#utility.yul\":10010:10024   */\n      add\n        /* \"#utility.yul\":10000:10024   */\n      swap2\n      pop\n        /* \"#utility.yul\":10069:10071   */\n      0x20\n        /* \"#utility.yul\":10058:10067   */\n      dup6\n        /* \"#utility.yul\":10054:10072   */\n      add\n        /* \"#utility.yul\":10041:10072   */\n      swap5\n      pop\n        /* \"#utility.yul\":9915:9919   */\n      0x20\n        /* \"#utility.yul\":9912:9913   */\n      dup2\n        /* \"#utility.yul\":9908:9920   */\n      add\n        /* \"#utility.yul\":9903:9920   */\n      swap1\n      pop\n        /* \"#utility.yul\":9878:10086   */\n      jump(tag_186)\n    tag_188:\n        /* \"#utility.yul\":10114:10120   */\n      dup7\n        /* \"#utility.yul\":10105:10112   */\n      dup4\n        /* \"#utility.yul\":10102:10121   */\n      lt\n        /* \"#utility.yul\":10099:10278   */\n      iszero\n      tag_189\n      jumpi\n        /* \"#utility.yul\":10172:10181   */\n      dup5\n        /* \"#utility.yul\":10167:10170   */\n      dup10\n        /* \"#utility.yul\":10163:10182   */\n      add\n        /* \"#utility.yul\":10157:10183   */\n      mload\n        /* \"#utility.yul\":10215:10263   */\n      tag_190\n        /* \"#utility.yul\":10257:10261   */\n      0x1f\n        /* \"#utility.yul\":10249:10255   */\n      dup10\n        /* \"#utility.yul\":10245:10262   */\n      and\n        /* \"#utility.yul\":10234:10243   */\n      dup3\n        /* \"#utility.yul\":10215:10263   */\n      tag_65\n      jump\t// in\n    tag_190:\n        /* \"#utility.yul\":10207:10213   */\n      dup4\n        /* \"#utility.yul\":10200:10264   */\n      sstore\n        /* \"#utility.yul\":10122:10278   */\n      pop\n        /* \"#utility.yul\":10099:10278   */\n    tag_189:\n        /* \"#utility.yul\":10324:10325   */\n      0x01\n        /* \"#utility.yul\":10320:10321   */\n      0x02\n        /* \"#utility.yul\":10312:10318   */\n      dup9\n        /* \"#utility.yul\":10308:10322   */\n      mul\n        /* \"#utility.yul\":10304:10326   */\n      add\n        /* \"#utility.yul\":10298:10302   */\n      dup9\n        /* \"#utility.yul\":10291:10327   */\n      sstore\n        /* \"#utility.yul\":9726:10337   */\n      pop\n      pop\n      pop\n        /* \"#utility.yul\":9689:10576   */\n    tag_181:\n      pop\n        /* \"#utility.yul\":9279:10582   */\n      pop\n      pop\n      pop\n        /* \"#utility.yul\":9187:10582   */\n      pop\n      pop\n      jump\t// out\n\n    auxdata: 0xa264697066735822122077b3f725071405475e8366e8f2fc8ab6c22e854bb2e1dbc29fd4cdcfd0ccc9a964736f6c634300081e0033\n}\n",
				"bytecode": {
					"linkReferences": {},
					"object": "6080604052348015600e575f5ffd5b506108128061001c5f395ff3fe608060405234801561000f575f5ffd5b5060043610610034575f3560e01c80631c5220c214610038578063365b98b214610054575b5f5ffd5b610052600480360381019061004d91906103a1565b610086565b005b61006e600480360381019061006991906103fb565b610148565b60405161007d939291906104d4565b60405180910390f35b5f60405180606001604052808481526020018381526020013373ffffffffffffffffffffffffffffffffffffffff16815250908060018154018082558091505060019003905f5260205f2090600302015f909190919091505f820151815f0190816100f1919061070d565b50602082015181600101556040820151816002015f6101000a81548173ffffffffffffffffffffffffffffffffffffffff021916908373ffffffffffffffffffffffffffffffffffffffff16021790555050505050565b5f8181548110610156575f80fd5b905f5260205f2090600302015f91509050805f0180546101759061053d565b80601f01602080910402602001604051908101604052809291908181526020018280546101a19061053d565b80156101ec5780601f106101c3576101008083540402835291602001916101ec565b820191905f5260205f20905b8154815290600101906020018083116101cf57829003601f168201915b505050505090806001015490806002015f9054906101000a900473ffffffffffffffffffffffffffffffffffffffff16905083565b5f604051905090565b5f5ffd5b5f5ffd5b5f5ffd5b5f5ffd5b5f601f19601f8301169050919050565b7f4e487b71000000000000000000000000000000000000000000000000000000005f52604160045260245ffd5b6102808261023a565b810181811067ffffffffffffffff8211171561029f5761029e61024a565b5b80604052505050565b5f6102b1610221565b90506102bd8282610277565b919050565b5f67ffffffffffffffff8211156102dc576102db61024a565b5b6102e58261023a565b9050602081019050919050565b828183375f83830152505050565b5f61031261030d846102c2565b6102a8565b90508281526020810184848401111561032e5761032d610236565b5b6103398482856102f2565b509392505050565b5f82601f83011261035557610354610232565b5b8135610365848260208601610300565b91505092915050565b5f819050919050565b6103808161036e565b811461038a575f5ffd5b50565b5f8135905061039b81610377565b92915050565b5f5f604083850312156103b7576103b661022a565b5b5f83013567ffffffffffffffff8111156103d4576103d361022e565b5b6103e085828601610341565b92505060206103f18582860161038d565b9150509250929050565b5f602082840312156104105761040f61022a565b5b5f61041d8482850161038d565b91505092915050565b5f81519050919050565b5f82825260208201905092915050565b8281835e5f83830152505050565b5f61045882610426565b6104628185610430565b9350610472818560208601610440565b61047b8161023a565b840191505092915050565b61048f8161036e565b82525050565b5f73ffffffffffffffffffffffffffffffffffffffff82169050919050565b5f6104be82610495565b9050919050565b6104ce816104b4565b82525050565b5f6060820190508181035f8301526104ec818661044e565b90506104fb6020830185610486565b61050860408301846104c5565b949350505050565b7f4e487b71000000000000000000000000000000000000000000000000000000005f52602260045260245ffd5b5f600282049050600182168061055457607f821691505b60208210810361056757610566610510565b5b50919050565b5f819050815f5260205f209050919050565b5f6020601f8301049050919050565b5f82821b905092915050565b5f600883026105c97fffffffffffffffffffffffffffffffffffffffffffffffffffffffffffffffff8261058e565b6105d3868361058e565b95508019841693508086168417925050509392505050565b5f819050919050565b5f61060e6106096106048461036e565b6105eb565b61036e565b9050919050565b5f819050919050565b610627836105f4565b61063b61063382610615565b84845461059a565b825550505050565b5f5f905090565b610652610643565b61065d81848461061e565b505050565b5b81811015610680576106755f8261064a565b600181019050610663565b5050565b601f8211156106c5576106968161056d565b61069f8461057f565b810160208510156106ae578190505b6106c26106ba8561057f565b830182610662565b50505b505050565b5f82821c905092915050565b5f6106e55f19846008026106ca565b1980831691505092915050565b5f6106fd83836106d6565b9150826002028217905092915050565b61071682610426565b67ffffffffffffffff81111561072f5761072e61024a565b5b610739825461053d565b610744828285610684565b5f60209050601f831160018114610775575f8415610763578287015190505b61076d85826106f2565b8655506107d4565b601f1984166107838661056d565b5f5b828110156107aa57848901518255600182019150602085019450602081019050610785565b868310156107c757848901516107c3601f8916826106d6565b8355505b6001600288020188555050505b50505050505056fea264697066735822122077b3f725071405475e8366e8f2fc8ab6c22e854bb2e1dbc29fd4cdcfd0ccc9a964736f6c634300081e0033",
					"opcodes": "PUSH1 0x80 PUSH1 0x40 MSTORE CALLVALUE DUP1 ISZERO PUSH1 0xE JUMPI PUSH0 PUSH0 REVERT JUMPDEST POP PUSH2 0x812 DUP1 PUSH2 0x1C PUSH0 CODECOPY PUSH0 RETURN INVALID PUSH1 0x80 PUSH1 0x40 MSTORE CALLVALUE DUP1 ISZERO PUSH2 0xF JUMPI PUSH0 PUSH0 REVERT JUMPDEST POP PUSH1 0x4 CALLDATASIZE LT PUSH2 0x34 JUMPI PUSH0 CALLDATALOAD PUSH1 0xE0 SHR DUP1 PUSH4 0x1C5220C2 EQ PUSH2 0x38 JUMPI DUP1 PUSH4 0x365B98B2 EQ PUSH2 0x54 JUMPI JUMPDEST PUSH0 PUSH0 REVERT JUMPDEST PUSH2 0x52 PUSH1 0x4 DUP1 CALLDATASIZE SUB DUP2 ADD SWAP1 PUSH2 0x4D SWAP2 SWAP1 PUSH2 0x3A1 JUMP JUMPDEST PUSH2 0x86 JUMP JUMPDEST STOP JUMPDEST PUSH2 0x6E PUSH1 0x4 DUP1 CALLDATASIZE SUB DUP2 ADD SWAP1 PUSH2 0x69 SWAP2 SWAP1 PUSH2 0x3FB JUMP JUMPDEST PUSH2 0x148 JUMP JUMPDEST PUSH1 0x40 MLOAD PUSH2 0x7D SWAP4 SWAP3 SWAP2 SWAP1 PUSH2 0x4D4 JUMP JUMPDEST PUSH1 0x40 MLOAD DUP1 SWAP2 SUB SWAP1 RETURN JUMPDEST PUSH0 PUSH1 0x40 MLOAD DUP1 PUSH1 0x60 ADD PUSH1 0x40 MSTORE DUP1 DUP5 DUP2 MSTORE PUSH1 0x20 ADD DUP4 DUP2 MSTORE PUSH1 0x20 ADD CALLER PUSH20 0xFFFFFFFFFFFFFFFFFFFFFFFFFFFFFFFFFFFFFFFF AND DUP2 MSTORE POP SWAP1 DUP1 PUSH1 0x1 DUP2 SLOAD ADD DUP1 DUP3 SSTORE DUP1 SWAP2 POP POP PUSH1 0x1 SWAP1 SUB SWAP1 PUSH0 MSTORE PUSH1 0x20 PUSH0 KECCAK256 SWAP1 PUSH1 0x3 MUL ADD PUSH0 SWAP1 SWAP2 SWAP1 SWAP2 SWAP1 SWAP2 POP PUSH0 DUP3 ADD MLOAD DUP2 PUSH0 ADD SWAP1 DUP2 PUSH2 0xF1 SWAP2 SWAP1 PUSH2 0x70D JUMP JUMPDEST POP PUSH1 0x20 DUP3 ADD MLOAD DUP2 PUSH1 0x1 ADD SSTORE PUSH1 0x40 DUP3 ADD MLOAD DUP2 PUSH1 0x2 ADD PUSH0 PUSH2 0x100 EXP DUP2 SLOAD DUP2 PUSH20 0xFFFFFFFFFFFFFFFFFFFFFFFFFFFFFFFFFFFFFFFF MUL NOT AND SWAP1 DUP4 PUSH20 0xFFFFFFFFFFFFFFFFFFFFFFFFFFFFFFFFFFFFFFFF AND MUL OR SWAP1 SSTORE POP POP POP POP POP JUMP JUMPDEST PUSH0 DUP2 DUP2 SLOAD DUP2 LT PUSH2 0x156 JUMPI PUSH0 DUP1 REVERT JUMPDEST SWAP1 PUSH0 MSTORE PUSH1 0x20 PUSH0 KECCAK256 SWAP1 PUSH1 0x3 MUL ADD PUSH0 SWAP2 POP SWAP1 POP DUP1 PUSH0 ADD DUP1 SLOAD PUSH2 0x175 SWAP1 PUSH2 0x53D JUMP JUMPDEST DUP1 PUSH1 0x1F ADD PUSH1 0x20 DUP1 SWAP2 DIV MUL PUSH1 0x20 ADD PUSH1 0x40 MLOAD SWAP1 DUP2 ADD PUSH1 0x40 MSTORE DUP1 SWAP3 SWAP2 SWAP1 DUP2 DUP2 MSTORE PUSH1 0x20 ADD DUP3 DUP1 SLOAD PUSH2 0x1A1 SWAP1 PUSH2 0x53D JUMP JUMPDEST DUP1 ISZERO PUSH2 0x1EC JUMPI DUP1 PUSH1 0x1F LT PUSH2 0x1C3 JUMPI PUSH2 0x100 DUP1 DUP4 SLOAD DIV MUL DUP4 MSTORE SWAP2 PUSH1 0x20 ADD SWAP2 PUSH2 0x1EC JUMP JUMPDEST DUP3 ADD SWAP2 SWAP1 PUSH0 MSTORE PUSH1 0x20 PUSH0 KECCAK256 SWAP1 JUMPDEST DUP2 SLOAD DUP2 MSTORE SWAP1 PUSH1 0x1 ADD SWAP1 PUSH1 0x20 ADD DUP1 DUP4 GT PUSH2 0x1CF JUMPI DUP3 SWAP1 SUB PUSH1 0x1F AND DUP3 ADD SWAP2 JUMPDEST POP POP POP POP POP SWAP1 DUP1 PUSH1 0x1 ADD SLOAD SWAP1 DUP1 PUSH1 0x2 ADD PUSH0 SWAP1 SLOAD SWAP1 PUSH2 0x100 EXP SWAP1 DIV PUSH20 0xFFFFFFFFFFFFFFFFFFFFFFFFFFFFFFFFFFFFFFFF AND SWAP1 POP DUP4 JUMP JUMPDEST PUSH0 PUSH1 0x40 MLOAD SWAP1 POP SWAP1 JUMP JUMPDEST PUSH0 PUSH0 REVERT JUMPDEST PUSH0 PUSH0 REVERT JUMPDEST PUSH0 PUSH0 REVERT JUMPDEST PUSH0 PUSH0 REVERT JUMPDEST PUSH0 PUSH1 0x1F NOT PUSH1 0x1F DUP4 ADD AND SWAP1 POP SWAP2 SWAP1 POP JUMP JUMPDEST PUSH32 0x4E487B7100000000000000000000000000000000000000000000000000000000 PUSH0 MSTORE PUSH1 0x41 PUSH1 0x4 MSTORE PUSH1 0x24 PUSH0 REVERT JUMPDEST PUSH2 0x280 DUP3 PUSH2 0x23A JUMP JUMPDEST DUP2 ADD DUP2 DUP2 LT PUSH8 0xFFFFFFFFFFFFFFFF DUP3 GT OR ISZERO PUSH2 0x29F JUMPI PUSH2 0x29E PUSH2 0x24A JUMP JUMPDEST JUMPDEST DUP1 PUSH1 0x40 MSTORE POP POP POP JUMP JUMPDEST PUSH0 PUSH2 0x2B1 PUSH2 0x221 JUMP JUMPDEST SWAP1 POP PUSH2 0x2BD DUP3 DUP3 PUSH2 0x277 JUMP JUMPDEST SWAP2 SWAP1 POP JUMP JUMPDEST PUSH0 PUSH8 0xFFFFFFFFFFFFFFFF DUP3 GT ISZERO PUSH2 0x2DC JUMPI PUSH2 0x2DB PUSH2 0x24A JUMP JUMPDEST JUMPDEST PUSH2 0x2E5 DUP3 PUSH2 0x23A JUMP JUMPDEST SWAP1 POP PUSH1 0x20 DUP2 ADD SWAP1 POP SWAP2 SWAP1 POP JUMP JUMPDEST DUP3 DUP2 DUP4 CALLDATACOPY PUSH0 DUP4 DUP4 ADD MSTORE POP POP POP JUMP JUMPDEST PUSH0 PUSH2 0x312 PUSH2 0x30D DUP5 PUSH2 0x2C2 JUMP JUMPDEST PUSH2 0x2A8 JUMP JUMPDEST SWAP1 POP DUP3 DUP2 MSTORE PUSH1 0x20 DUP2 ADD DUP5 DUP5 DUP5 ADD GT ISZERO PUSH2 0x32E JUMPI PUSH2 0x32D PUSH2 0x236 JUMP JUMPDEST JUMPDEST PUSH2 0x339 DUP5 DUP3 DUP6 PUSH2 0x2F2 JUMP JUMPDEST POP SWAP4 SWAP3 POP POP POP JUMP JUMPDEST PUSH0 DUP3 PUSH1 0x1F DUP4 ADD SLT PUSH2 0x355 JUMPI PUSH2 0x354 PUSH2 0x232 JUMP JUMPDEST JUMPDEST DUP2 CALLDATALOAD PUSH2 0x365 DUP5 DUP3 PUSH1 0x20 DUP7 ADD PUSH2 0x300 JUMP JUMPDEST SWAP2 POP POP SWAP3 SWAP2 POP POP JUMP JUMPDEST PUSH0 DUP2 SWAP1 POP SWAP2 SWAP1 POP JUMP JUMPDEST PUSH2 0x380 DUP2 PUSH2 0x36E JUMP JUMPDEST DUP2 EQ PUSH2 0x38A JUMPI PUSH0 PUSH0 REVERT JUMPDEST POP JUMP JUMPDEST PUSH0 DUP2 CALLDATALOAD SWAP1 POP PUSH2 0x39B DUP2 PUSH2 0x377 JUMP JUMPDEST SWAP3 SWAP2 POP POP JUMP JUMPDEST PUSH0 PUSH0 PUSH1 0x40 DUP4 DUP6 SUB SLT ISZERO PUSH2 0x3B7 JUMPI PUSH2 0x3B6 PUSH2 0x22A JUMP JUMPDEST JUMPDEST PUSH0 DUP4 ADD CALLDATALOAD PUSH8 0xFFFFFFFFFFFFFFFF DUP2 GT ISZERO PUSH2 0x3D4 JUMPI PUSH2 0x3D3 PUSH2 0x22E JUMP JUMPDEST JUMPDEST PUSH2 0x3E0 DUP6 DUP3 DUP7 ADD PUSH2 0x341 JUMP JUMPDEST SWAP3 POP POP PUSH1 0x20 PUSH2 0x3F1 DUP6 DUP3 DUP7 ADD PUSH2 0x38D JUMP JUMPDEST SWAP2 POP POP SWAP3 POP SWAP3 SWAP1 POP JUMP JUMPDEST PUSH0 PUSH1 0x20 DUP3 DUP5 SUB SLT ISZERO PUSH2 0x410 JUMPI PUSH2 0x40F PUSH2 0x22A JUMP JUMPDEST JUMPDEST PUSH0 PUSH2 0x41D DUP5 DUP3 DUP6 ADD PUSH2 0x38D JUMP JUMPDEST SWAP2 POP POP SWAP3 SWAP2 POP POP JUMP JUMPDEST PUSH0 DUP2 MLOAD SWAP1 POP SWAP2 SWAP1 POP JUMP JUMPDEST PUSH0 DUP3 DUP3 MSTORE PUSH1 0x20 DUP3 ADD SWAP1 POP SWAP3 SWAP2 POP POP JUMP JUMPDEST DUP3 DUP2 DUP4 MCOPY PUSH0 DUP4 DUP4 ADD MSTORE POP POP POP JUMP JUMPDEST PUSH0 PUSH2 0x458 DUP3 PUSH2 0x426 JUMP JUMPDEST PUSH2 0x462 DUP2 DUP6 PUSH2 0x430 JUMP JUMPDEST SWAP4 POP PUSH2 0x472 DUP2 DUP6 PUSH1 0x20 DUP7 ADD PUSH2 0x440 JUMP JUMPDEST PUSH2 0x47B DUP2 PUSH2 0x23A JUMP JUMPDEST DUP5 ADD SWAP2 POP POP SWAP3 SWAP2 POP POP JUMP JUMPDEST PUSH2 0x48F DUP2 PUSH2 0x36E JUMP JUMPDEST DUP3 MSTORE POP POP JUMP JUMPDEST PUSH0 PUSH20 0xFFFFFFFFFFFFFFFFFFFFFFFFFFFFFFFFFFFFFFFF DUP3 AND SWAP1 POP SWAP2 SWAP1 POP JUMP JUMPDEST PUSH0 PUSH2 0x4BE DUP3 PUSH2 0x495 JUMP JUMPDEST SWAP1 POP SWAP2 SWAP1 POP JUMP JUMPDEST PUSH2 0x4CE DUP2 PUSH2 0x4B4 JUMP JUMPDEST DUP3 MSTORE POP POP JUMP JUMPDEST PUSH0 PUSH1 0x60 DUP3 ADD SWAP1 POP DUP2 DUP2 SUB PUSH0 DUP4 ADD MSTORE PUSH2 0x4EC DUP2 DUP7 PUSH2 0x44E JUMP JUMPDEST SWAP1 POP PUSH2 0x4FB PUSH1 0x20 DUP4 ADD DUP6 PUSH2 0x486 JUMP JUMPDEST PUSH2 0x508 PUSH1 0x40 DUP4 ADD DUP5 PUSH2 0x4C5 JUMP JUMPDEST SWAP5 SWAP4 POP POP POP POP JUMP JUMPDEST PUSH32 0x4E487B7100000000000000000000000000000000000000000000000000000000 PUSH0 MSTORE PUSH1 0x22 PUSH1 0x4 MSTORE PUSH1 0x24 PUSH0 REVERT JUMPDEST PUSH0 PUSH1 0x2 DUP3 DIV SWAP1 POP PUSH1 0x1 DUP3 AND DUP1 PUSH2 0x554 JUMPI PUSH1 0x7F DUP3 AND SWAP2 POP JUMPDEST PUSH1 0x20 DUP3 LT DUP2 SUB PUSH2 0x567 JUMPI PUSH2 0x566 PUSH2 0x510 JUMP JUMPDEST JUMPDEST POP SWAP2 SWAP1 POP JUMP JUMPDEST PUSH0 DUP2 SWAP1 POP DUP2 PUSH0 MSTORE PUSH1 0x20 PUSH0 KECCAK256 SWAP1 POP SWAP2 SWAP1 POP JUMP JUMPDEST PUSH0 PUSH1 0x20 PUSH1 0x1F DUP4 ADD DIV SWAP1 POP SWAP2 SWAP1 POP JUMP JUMPDEST PUSH0 DUP3 DUP3 SHL SWAP1 POP SWAP3 SWAP2 POP POP JUMP JUMPDEST PUSH0 PUSH1 0x8 DUP4 MUL PUSH2 0x5C9 PUSH32 0xFFFFFFFFFFFFFFFFFFFFFFFFFFFFFFFFFFFFFFFFFFFFFFFFFFFFFFFFFFFFFFFF DUP3 PUSH2 0x58E JUMP JUMPDEST PUSH2 0x5D3 DUP7 DUP4 PUSH2 0x58E JUMP JUMPDEST SWAP6 POP DUP1 NOT DUP5 AND SWAP4 POP DUP1 DUP7 AND DUP5 OR SWAP3 POP POP POP SWAP4 SWAP3 POP POP POP JUMP JUMPDEST PUSH0 DUP2 SWAP1 POP SWAP2 SWAP1 POP JUMP JUMPDEST PUSH0 PUSH2 0x60E PUSH2 0x609 PUSH2 0x604 DUP5 PUSH2 0x36E JUMP JUMPDEST PUSH2 0x5EB JUMP JUMPDEST PUSH2 0x36E JUMP JUMPDEST SWAP1 POP SWAP2 SWAP1 POP JUMP JUMPDEST PUSH0 DUP2 SWAP1 POP SWAP2 SWAP1 POP JUMP JUMPDEST PUSH2 0x627 DUP4 PUSH2 0x5F4 JUMP JUMPDEST PUSH2 0x63B PUSH2 0x633 DUP3 PUSH2 0x615 JUMP JUMPDEST DUP5 DUP5 SLOAD PUSH2 0x59A JUMP JUMPDEST DUP3 SSTORE POP POP POP POP JUMP JUMPDEST PUSH0 PUSH0 SWAP1 POP SWAP1 JUMP JUMPDEST PUSH2 0x652 PUSH2 0x643 JUMP JUMPDEST PUSH2 0x65D DUP2 DUP5 DUP5 PUSH2 0x61E JUMP JUMPDEST POP POP POP JUMP JUMPDEST JUMPDEST DUP2 DUP2 LT ISZERO PUSH2 0x680 JUMPI PUSH2 0x675 PUSH0 DUP3 PUSH2 0x64A JUMP JUMPDEST PUSH1 0x1 DUP2 ADD SWAP1 POP PUSH2 0x663 JUMP JUMPDEST POP POP JUMP JUMPDEST PUSH1 0x1F DUP3 GT ISZERO PUSH2 0x6C5 JUMPI PUSH2 0x696 DUP2 PUSH2 0x56D JUMP JUMPDEST PUSH2 0x69F DUP5 PUSH2 0x57F JUMP JUMPDEST DUP2 ADD PUSH1 0x20 DUP6 LT ISZERO PUSH2 0x6AE JUMPI DUP2 SWAP1 POP JUMPDEST PUSH2 0x6C2 PUSH2 0x6BA DUP6 PUSH2 0x57F JUMP JUMPDEST DUP4 ADD DUP3 PUSH2 0x662 JUMP JUMPDEST POP POP JUMPDEST POP POP POP JUMP JUMPDEST PUSH0 DUP3 DUP3 SHR SWAP1 POP SWAP3 SWAP2 POP POP JUMP JUMPDEST PUSH0 PUSH2 0x6E5 PUSH0 NOT DUP5 PUSH1 0x8 MUL PUSH2 0x6CA JUMP JUMPDEST NOT DUP1 DUP4 AND SWAP2 POP POP SWAP3 SWAP2 POP POP JUMP JUMPDEST PUSH0 PUSH2 0x6FD DUP4 DUP4 PUSH2 0x6D6 JUMP JUMPDEST SWAP2 POP DUP3 PUSH1 0x2 MUL DUP3 OR SWAP1 POP SWAP3 SWAP2 POP POP JUMP JUMPDEST PUSH2 0x716 DUP3 PUSH2 0x426 JUMP JUMPDEST PUSH8 0xFFFFFFFFFFFFFFFF DUP2 GT ISZERO PUSH2 0x72F JUMPI PUSH2 0x72E PUSH2 0x24A JUMP JUMPDEST JUMPDEST PUSH2 0x739 DUP3 SLOAD PUSH2 0x53D JUMP JUMPDEST PUSH2 0x744 DUP3 DUP3 DUP6 PUSH2 0x684 JUMP JUMPDEST PUSH0 PUSH1 0x20 SWAP1 POP PUSH1 0x1F DUP4 GT PUSH1 0x1 DUP2 EQ PUSH2 0x775 JUMPI PUSH0 DUP5 ISZERO PUSH2 0x763 JUMPI DUP3 DUP8 ADD MLOAD SWAP1 POP JUMPDEST PUSH2 0x76D DUP6 DUP3 PUSH2 0x6F2 JUMP JUMPDEST DUP7 SSTORE POP PUSH2 0x7D4 JUMP JUMPDEST PUSH1 0x1F NOT DUP5 AND PUSH2 0x783 DUP7 PUSH2 0x56D JUMP JUMPDEST PUSH0 JUMPDEST DUP3 DUP2 LT ISZERO PUSH2 0x7AA JUMPI DUP5 DUP10 ADD MLOAD DUP3 SSTORE PUSH1 0x1 DUP3 ADD SWAP2 POP PUSH1 0x20 DUP6 ADD SWAP5 POP PUSH1 0x20 DUP2 ADD SWAP1 POP PUSH2 0x785 JUMP JUMPDEST DUP7 DUP4 LT ISZERO PUSH2 0x7C7 JUMPI DUP5 DUP10 ADD MLOAD PUSH2 0x7C3 PUSH1 0x1F DUP10 AND DUP3 PUSH2 0x6D6 JUMP JUMPDEST DUP4 SSTORE POP JUMPDEST PUSH1 0x1 PUSH1 0x2 DUP9 MUL ADD DUP9 SSTORE POP POP POP JUMPDEST POP POP POP POP POP POP JUMP INVALID LOG2 PUSH5 0x6970667358 0x22 SLT KECCAK256 PUSH24 0xB3F725071405475E8366E8F2FC8AB6C22E854BB2E1DBC29F 0xD4 0xCD 0xCF 0xD0 0xCC 0xC9 0xA9 PUSH5 0x736F6C6343 STOP ADDMOD 0x1E STOP CALLER "
				},
				"gasEstimates": {
					"creation": {
						"codeDepositCost": "413200",
						"executionCost": "447",
						"totalCost": "413647"
					},
					"external": {
						"addUser(string,uint256)": "infinite",
						"users(uint256)": "infinite"
					}
				},
				"methodIdentifiers": {
					"addUser(string,uint256)": "1c5220c2",
					"users(uint256)": "365b98b2"
				}
			},
			"storageLayout": {
				"storage": [
					{
						"astId": 12,
						"contract": "structure.sol:UserStorage",
						"label": "users",
						"offset": 0,
						"slot": "0",
						"type": "t_array(t_struct(User)8_storage)dyn_storage"
					}
				],
				"types": {
					"t_address": {
						"encoding": "inplace",
						"label": "address",
						"numberOfBytes": "20"
					},
					"t_array(t_struct(User)8_storage)dyn_storage": {
						"base": "t_struct(User)8_storage",
						"encoding": "dynamic_array",
						"label": "struct UserStorage.User[]",
						"numberOfBytes": "32"
					},
					"t_string_storage": {
						"encoding": "bytes",
						"label": "string",
						"numberOfBytes": "32"
					},
					"t_struct(User)8_storage": {
						"encoding": "inplace",
						"label": "struct UserStorage.User",
						"members": [
							{
								"astId": 3,
								"contract": "structure.sol:UserStorage",
								"label": "name",
								"offset": 0,
								"slot": "0",
								"type": "t_string_storage"
							},
							{
								"astId": 5,
								"contract": "structure.sol:UserStorage",
								"label": "age",
								"offset": 0,
								"slot": "1",
								"type": "t_uint256"
							},
							{
								"astId": 7,
								"contract": "structure.sol:UserStorage",
								"label": "wallet",
								"offset": 0,
								"slot": "2",
								"type": "t_address"
							}
						],
						"numberOfBytes": "96"
					},
					"t_uint256": {
						"encoding": "inplace",
						"label": "uint256",
						"numberOfBytes": "32"
					}
				}
			},
			"userdoc": {
				"kind": "user",
				"methods": {},
				"version": 1
			}
		}
	}
}